S00E0000496F544170702E73726563E9
S113000083C10000A1C100009FC100009DC1000088
S11300109BC1000099C1000097C1000095C1000078
S113002093C1000091C100008FC100008DC1000088
S11300300C94751389C1000087C1000085C10000BC
S113004083C1000081C100007FC100007DC10000A8
S11300507BC1000079C1000077C1000075C10000B8
S113006073C100000C948E3D0C94E03D6DC1000002
S11300706BC1000069C1000067C1000065C10000D8
S113008063C1000061C100005FC100005DC10000E8
S11300900C94243E0C94763E57C100000C948D427F
S11300A053C1000051C100004FC100004DC1000008
S11300B04BC1000049C1000047C1000045C1000018
S11300C043C1000041C100003FC100000C94BA3E8E
S11300D00C940C3F39C100000C94503F0C94A23F87
S11300E033C100005C305C305C30BB30C630FD3066
S11300F05C305C30BB30C630AF421F431F431F43EC
S11301001F431F431F431F43AF421F431F431F434C
S11301101F431F431F431F43B1421F431F431F433A
S11301201F431F431F431F431F431F431F431F43BB
S11301301F431F431F431F43B1421F431F431F431A
S11301401F431F431F431F431F431F431F431F439B
S11301501F431F431F431F431B431F431F431F438F
S11301601F431F431F431F43E6421F431F431F43B5
S11301701F431F431F431F431F431F431F431F436B
S11301801F431F431F431F43DA421F431F431F43A1
S11301901F431F431F431F43FE426E616E00696E7F
S11301A0660000407A10F35A00A0724E180900103D
S11301B0A5D4E80000E87648170000E40B540200D8
S11301C000CA9A3B000000E1F50500008096980003
S11301D0000040420F000000A0860100000010272C
S11301E000000000E80300000000640000000000BC
S11301F00A00000000000100000000002C76D888EE
S1130200DC674F0823DFC1DFAE59E1B1B796E5E300
S1130210E453C63AE651997696E8E6C28426EB8919
S11302208C9B62ED407C6FFCEFBC9C9F40F2BAA5B6
S11302306FA5F490055A2AF75C936B6CF9676DC14E
S11302401BFCE0E40D47FEF520E6B500D0ED902E52
S11302500300943577050080841E080000204E0AB0
S1130260000000C80C333333330F986E12831141EE
S1130270EF8D2114893BE65516CFFEE6DB18D184B9
S11302804B381BF77C1D901DA4BBE42420328472E0
S11302905E228100C9F124ECA1E53D27CF93DF93D1
S11302A01F921F92CDB7DEB79A8389830E94D4260A
S11302B080917217823010F00E948A120E942A32B2
S11302C0F5CFCF93DF93CDB7DEB727970FB6F8946A
S11302D0DEBF0FBECDBF9F838E83CE0105960E94E5
S11302E0EE2EDC01CB0189839A83AB83BC832D8101
S11302F089819A81AB81BC81422FBC01CD010E94CE
S11303006F2E0E941530E9CF11241FBECFEFD1E22A
S1130310DEBFCDBF00E00CBF17E0A0E0B2E0E8E92B
S1130320F7E900E00BBF02C007900D92A430B107BB
S1130330D9F729E1A4E0B7E001C01D92A639B207BC
S1130340E1F70ED10C94CA4B5BCECF93DF931F928F
S11303501F92CDB7DEB79A83898389819A8190935E
S113036005078093040700000F900F90DF91CF9151
S11303700895CF93DF9300D01F92CDB7DEB7698382
S11303807A838B839C8389819A81AB81BC8180939E
S11303900A0790930B07A0930C07B0930D07000076
S11303A00F900F900F900F90DF91CF910895CF93FE
S11303B0DF9300D01F92CDB7DEB769837A838B8336
S11303C09C8389819A81AB81BC8180930E07909331
S11303D00F07A0931007B093110700000F900F9020
S11303E00F900F90DF91CF910895CF93DF9300D0BA
S11303F01F92CDB7DEB769837A838B839C8389810F
S11304009A81AB81BC818093060790930707A093E0
S11304100807B093090700000F900F900F900F90FA
S1130420DF91CF910895CF93DF93CDB7DEB76F9768
S11304300FB6F894DEBF0FBECDBF9E8F8D8F6F8F2A
S113044026E1CE010796FC01322F11923A95E9F785
S11304508F8D8F8388E088878091060790910707A6
S1130460A0910807B091090720E030E048EC52E47D
S1130470BC01CD010E94DB33DC01CB01BC01CD0109
S11304800E945E33DC01CB019A83898380910A0741
S113049090910B07A0910C07B0910D0720E030E07C
S11304A048EC52E4BC01CD010E94DB33DC01CB01FA
S11304B0BC01CD010E945E33DC01CB019C838B83A4
S11304C080910E0790910F07A0911007B09111072A
S11304D020E030E048EC52E4BC01CD010E94DB3363
S11304E0DC01CB01BC01CD010E945E33DC01CB01F8
S11304F09E838D838B819C81892F992789878B810A
S11305008A878D819E81892F99278B878D818C87FE
S11305108091040790910507892F99278D878091F1
S11305200407909105078E8789819A81892F9927DD
S11305308F878981888B8D8D9E8D26E1FE0137966C
S1130540DC0101900D922A95E1F78D8D9E8D6F96B9
S11305500FB6F894DEBF0FBECDBFDF91CF910895E3
S1130560CF93DF93CDB7DEB7CFD680E00E940440AF
S113057081E292E00E940E4BF9D40E945821FFCFF1
S1130580CF93DF931F921F92CDB7DEB79A838983EF
S113059089819A8190931B0780931A07809116078B
S11305A09091170742E050E060E070E00E94210B58
S11305B000000F900F90DF91CF910895CF93DF93B8
S11305C0CDB7DEB760EC72E083E00E94003C00002F
S11305D0DF91CF910895CF92DF92EF92FF920F9324
S11305E0CF93DF931F921F92CDB7DEB79A8389838F
S11305F08091140790911507CC24CA94DC2C7601C1
S113060001E021E042E050E060E070E0E3D60E94C7
S11306102E3C80931C0780911C07882349F380910A
S11306201207909113074FEF5FEFBA010E94AB16C8
S1130630809112079091130700E020E030E0A901B7
S113064060E070E00E94E314D3CFEF92FF920F9327
S1130650CF93DF9300D000D0CDB7DEB79A838983E0
S11306607C836B835E834D838D819E81909313077E
S11306708093120789819A819093150780931407B8
S11306808B819C81909317078093160710921B0708
S113069010921A0793DF10921907109218070F2E61
S11306A0F8E1EF2EF7E0FF2EF02D01E020E030E03E
S11306B040EC50E063E372E08BEE92E00E944E1F48
S11306C0000026960FB6F894DEBF0FBECDBFDF91B3
S11306D0CF910F91FF90EF900895CF93DF93CDB713
S11306E0DEB780911A0790911B07DF91CF9108958F
S11306F0CF93DF9300D000D0CDB7DEB78E838E8149
S11307008130A9F51A821B821C821D82CE010296B9
S11307100E94CE40898389818823B1F48A819B8198
S1130720AC81BD818093250790932607A09327076A
S1130730B0932807809121079091220744E050E06C
S113074060E070E07ED714C080911D0790911E0771
S11307504FEF5FEFBA010E94AB1680911D07909195
S11307601E074FEF5FEFBA010E94AB1601C00000F5
S113077026960FB6F894DEBF0FBECDBFDF91CF91A2
S11307800895CF93DF931F921F92CDB7DEB788E70A
S113079093E00E948C40882F90E09A83898389811A
S11307A09A81892B21F081E090E00E94CA4B0E943B
S11307B0A740882F90E09A83898389819A81892B25
S11307C021F081E090E00E94CA4B00000F900F904E
S11307D0DF91CF910895CF92DF92EF92FF920F9322
S11307E0CF93DF9300D01F92CDB7DEB79C838B836A
S11307F080911F0790912007CC24CA94DC2C7601A9
S113080001E021E044E050E060E070E0E3D50E94C4
S1130810BC40882F90E09A83898389819A81892BAF
S113082039F380911D0790911E074FEF5FEFBA01D6
S11308300E94AB1680911D0790911E0700E020E0F6
S113084030E0A90160E070E00E94E314D1CFEF92A0
S1130850FF920F93CF93DF9300D000D0CDB7DEB7D4
S11308609A8389837C836B835E834D838D819E8190
S113087090931E0780931D0789819A819093200786
S113088080931F078B819C8190932207809321077B
S11308901092250710922607109227071092280716
S11308A070DF10922407109223070F2EF3E2EF2E2D
S11308B0F7E0FF2EF02D01E020E030E040EC50E0C6
S11308C067E372E08BEE93E00E944E1F00002696D1
S11308D00FB6F894DEBF0FBECDBFDF91CF910F915D
S11308E0FF90EF900895CF93DF93CDB7DEB780915B
S11308F0250790912607A0912707B0912807BC01EE
S1130900CD01DF91CF910895CF93DF931F921F9272
S1130910CDB7DEB781E00E9454360E945A380E9457
S1130920D73A292F2F938F938DE392E0892F8F93BA
S11309308DE392E08F930E94FB4A0F900F900F90EB
S11309400F900E94D8390E94D73A292F2F938F9362
S113095080E592E0892F8F9380E592E08F930E9447
S1130960FB4A0F900F900F900F908FE297E00E9438
S11309706C388A838A810E94D73A9C018FE297E07F
S1130980892F8F938FE297E08F93832F8F93822FFA
S11309908F9389E692E0892F8F9389E692E08F9373
S11309A00E94FB4A0F900F900F900F900F900F90A2
S11309B08FE297E00E9488380E94D73A292F2F931C
S11309C08F938FE297E0892F8F938FE297E08F9335
S11309D08DE792E0892F8F938DE792E08F930E94A9
S11309E0FB4A0F900F900F900F900F900F904FE2D3
S11309F057E062E972E083EB92E00E94B63A0E940B
S1130A00D73A292F2F938F938FE297E0892F8F93D3
S1130A108FE297E08F9382E992E0892F8F9382E9A6
S1130A2092E08F9383EB92E0892F8F9383EB92E094
S1130A308F9384EC92E0892F8F9384EC92E08F93D0
S1130A400E94FB4A8DB79EB70A960FB6F894DEBF94
S1130A500FBECDBF0E94BB380E94D73A292F2F93D7
S1130A608F938AEF92E0892F8F938AEF92E08F938E
S1130A700E94FB4A0F900F900F900F9081E00E940C
S1130A80B5390E94D73A292F2F938F9389E093E0A9
S1130A90892F8F9389E093E08F930E94FB4A0F90F4
S1130AA00F900F900F9084EF91E00E94C0390E9444
S1130AB0D73A292F2F938F9381E08F9384EF8F93CD
S1130AC08AE293E0892F8F938AE293E08F930E94C6
S1130AD0FB4A0F900F900F900F900F900F908AE0A9
S1130AE0898380E00E94C1388A838A810E94D73A30
S1130AF09C018981882F90E0432F4F932F93292FB6
S1130B002F938F938AE493E0892F8F938AE493E061
S1130B108F930E94FB4A0F900F900F900F900F90AD
S1130B200F908A81883081F080E00E94C03666E3AD
S1130B3071E080E090E00E942A21898181508983BC
S1130B408981882371F601C000008A81883021F4EC
S1130B5081E00E94A23609C081E00E94B13680E0A3
S1130B600E947B360E948A12FDCF0F900F90DF9176
S1130B70CF9108950F93CF93DF93CDB7DEB783E082
S1130B800E94D23680912B0790912C07892B69F112
S1130B9080912B0790912C074FEF5FEFBA010E94D1
S1130BA0AB16BE01695F7F4F80E00E94EA380E9465
S1130BB0D73A292F2F938F938AE693E0892F8F9327
S1130BC08AE693E08F930E94FB4A0F900F900F9058
S1130BD00F9080912B0790912C0700E020E030E0EB
S1130BE0A90160E070E00E94E3140000DF91CF915E
S1130BF00F910895CF93DF931F921F92CDB7DEB765
S1130C009A83898381E00E94463862E070E080E044
S1130C1090E00E942A2180E00E94463866E970E054
S1130C2080E090E00E942A210E94FC376DDE66E994
S1130C3070E080E090E00E942A2180912907909141
S1130C402A07892BD1F38091290790912A072FEF46
S1130C503FEFA90163E977E00E94F715813069F756
S1130C608DB79EB746970FB6F8949EBF0FBE8DBF43
S1130C708DB79EB7019626E1E3E9F7E0DC01019028
S1130C800D922A95E1F776DF8DB79EB746960FB69B
S1130C90F894DEBF0FBECDBFD0CFCF93DF93CDB7D7
S1130CA0DEB787E00E94663460E070E081E00E9475
S1130CB003380000DF91CF910895EF92FF920F93D4
S1130CC0CF93DF9300D01F92CDB7DEB79A83898389
S1130CD07C836B8389819A8190932A078093290767
S1130CE08B819C8190932C0780932B0710922E0765
S1130CF010922D07D2DF0F2EFDE2EF2EF7E0FF2E2C
S1130D00F02D03E020E030E048E851E06FE773E0C5
S1130D108AEF95E00E944E1F00000F900F900F90F5
S1130D200F90DF91CF910F91FF90EF900895CF92A4
S1130D30DF92EF92FF920F93CF93DF93CDB7DEB79D
S1130D40A6970FB6F894DEBF0FBECDBF9EA38DA3AA
S1130D508091AD079091AE0747E050E060E070E00D
S1130D6070D48091AF079091B007CC24CA94DC2C46
S1130D70760101E021E047E050E060E070E02AD332
S1130D8087E893E00E940E4BA8DC9A8389838091C4
S1130D90AB079091AC074FEF5FEFBA010E94AB161F
S1130DA08A818F9389818F938CE893E0892F8F9325
S1130DB08CE893E08F930E94FB4A0F900F900F9062
S1130DC00F908091AB079091AC0700E020E030E0F9
S1130DD0A90160E070E00E94E31485D2DC01CB013C
S1130DE08B839C83AD83BE838091AB079091AC07CA
S1130DF04FEF5FEFBA010E94AB168E818F938D8106
S1130E008F938C818F938B818F9385E993E0892FC6
S1130E108F9385E993E08F930E94FB4A0F900F9084
S1130E200F900F900F900F908091AB079091AC07AB
S1130E3000E020E030E0A90160E070E00E94E314EB
S1130E4041D2DC01CB018F839887A987BA8780912F
S1130E50AB079091AC074FEF5FEFBA010E94AB165E
S1130E608A858F9389858F9388858F938F818F93BC
S1130E7088EA93E0892F8F9388EA93E08F930E9406
S1130E80FB4A0F900F900F900F900F900F9080914E
S1130E90AB079091AC0700E020E030E0A90160E0EE
S1130EA070E00E94E3141FDDDC01CB018B879C877B
S1130EB0AD87BE878091AB079091AC074FEF5FEF92
S1130EC0BA010E94AB168E858F938D858F938C8586
S1130ED08F938B858F9388EB93E0892F8F9388EB87
S1130EE093E08F930E94FB4A0F900F900F900F9006
S1130EF00F900F908091AB079091AC0700E020E039
S1130F0030E0A90160E070E00E94E31489819A81D5
S1130F101CDA8B819C81AD81BE81BC01CD0147DA95
S1130F208F819885A985BA85BC01CD0122DA8B858C
S1130F309C85AD85BE85BC01CD0157DACE010F96E7
S1130F4061E071DA8091B1079091B207BE01615FEF
S1130F507F4F00E02FEF3FEFA9010E94E3146EE3FF
S1130F6079E480E090E00E942A21F2CEEF92FF9291
S1130F700F93CF93DF93CDB7DEB78091AB079091FA
S1130F80AC07892BC9F481E00E94C5149093AC0787
S1130F908093AB078091AB079091AC07892B61F0EC
S1130FA08091AB079091AC0700E020E030E0A9010C
S1130FB060E070E00E94E3148091AD079091AE0769
S1130FC0892B29F4E6D19093AE078093AD078091E5
S1130FD0AF079091B007892B29F4DBD19093B00728
S1130FE08093AF078091B1079091B207892B49F4A0
S1130FF040E066E181E00E9408149093B207809378
S1131000B1072091AB073091AC078091B107909163
S1131010B207B90152DE4091AB075091AC07209161
S1131020AF073091B0078091AD079091AE07B90139
S11310300CDB4091AB075091AC072091AF07309186
S1131040B0078091AD079091AE07B901E7D0409108
S1131050AB075091AC072091AF073091B007809156
S1131060AD079091AE07B901F2DB1092AA07109276
S1131070A9070F2EF9EAEF2EF7E0FF2EF02D01E07D
S113108020E030E044E251E065EC73E087E996E06B
S11310900E944E1F0000DF91CF910F91FF90EF90BF
S11310A00895CF93DF931F921F92CDB7DEB70E94AE
S11310B0C534882F90E09A83898389819A81892B0A
S11310C021F081E090E00E94CA4B00000F900F9045
S11310D0DF91CF910895CF92DF92EF92FF920F9319
S11310E0CF93DF9300D01F92CDB7DEB79C838B8361
S11310F08091B5079091B607CC24CA94DC2C760174
S113110001E021E041E050E060E070E063D10E9442
S1131110DD348093C30764E670E080E090E00E94D1
S11311202A218091C3078823A9F08091B307909165
S1131130B4074FEF5FEFBA010E94AB168091B3077B
S11311409091B40700E020E030E0A90160E070E095
S11311500E94E3140E94F2348093C30764E670E0B3
S113116080E090E00E942A218091C3078823A1F1A6
S11311708AE090E09A83898324C00E94F2348093A9
S1131180C30761E070E080E090E00E942A21898139
S11311909A8101979A8389838091B3079091B407C8
S11311A04FEF5FEFBA010E94AB168091B3079091A5
S11311B0B40700E020E030E0A90160E070E00E94A4
S11311C0E3148091C307833009F092CF89819A8117
S11311D01816190694F28CCF0E941735DC01CB0146
S11311E08093BB079093BC07A093BD07B093BE0741
S11311F00E940335DC01CB018093BF079093C007A5
S1131200A093C107B093C2078091B7079091B80724
S113121041E050E060E070E014D26ACFEF92FF92B8
S11312200F93CF93DF9300D000D0CDB7DEB79A836E
S113123089837C836B835E834D838D819E819093B0
S1131240B4078093B30789819A819093B6078093FA
S1131250B5078B819C819093B8078093B707109250
S1131260BB071092BC071092BD071092BE071092E4
S1131270BF071092C0071092C1071092C20711DF76
S11312801092BA071092B9070F2EF9EBEF2EF7E080
S1131290FF2EF02D01E020E030E040EC50E06DEC5A
S11312A073E08BE698E00E944E1F000026960FB66E
S11312B0F894DEBF0FBECDBFDF91CF910F91FF90A9
S11312C0EF900895CF93DF93CDB7DEB78091BF073A
S11312D09091C007A091C107B091C207BC01CD0194
S11312E0DF91CF910895CF93DF93CDB7DEB780918F
S11312F0BB079091BC07A091BD07B091BE07BC018C
S1131300CD01DF91CF910895CF93DF93CDB7DEB7B1
S113131087E091E027E031E0F90120812F60FC01B2
S113132020830000DF91CF910895CF93DF931F9224
S1131330CDB7DEB7898388E091E028E031E0F90198
S11313402081207FFC01208388E091E028E031E0C7
S1131350F9012081322F29812F70232BFC01208356
S113136000000F90DF91CF910895CF93DF931F92E8
S1131370CDB7DEB7898388E091E028E031E0F90158
S11313802081207FFC01208300000F90DF91CF910A
S11313900895CF93DF931F921F92CDB7DEB780E1FC
S11313A090E0AAD29A83898389819A81892B59F002
S11313B089819A81FC0110821182128213828981AF
S11313C09A81049632D589819A810F900F90DF918A
S11313D0CF910895CF92DF92EF92FF920F931F93D4
S11313E0CF93DF93CDB7DEB76D970FB6F894DEBF1A
S11313F00FBECDBF9B8B8A8B4C8B5D8B6E8B7F8B93
S1131400288F098FCA8EDB8EEC8EFD8E8A899B898C
S11314109A8789871D821E821F8218861B860E94D6
S1131420A42189859A85FC0180819181A281B3815F
S11314308C879D87AE87BF872C893D894E895F89BC
S11314408C859D85AE85BF85098DBC01CD0107D2F4
S1131450888B8889882359F18C859D85AE85BF85C5
S113146089839A83AB83BC831A8E1B8E1C8E1D8E3C
S1131470888D882309F465C089859A85FC012081BB
S11314803181428153818C899D89AE89BF89809540
S11314909095A095B09582239323A423B523298501
S11314A03A85F90180839183A283B3834AC08A8DEC
S11314B09B8DAC8DBD8D892B8A2B8B2B59F48C8500
S11314C09D85AE85BF8589839A83AB83BC8381E088
S11314D08B8737C0888D882349F08D819E81AF81A9
S11314E0B885B1608D839E83AF83B887898D882347
S11314F049F08D819E81AF81B885B4608D839E83D0
S1131500AF83B8872C893D894E895F898D819E81FF
S1131510AF81B885822B932BA42BB52B29853A85D3
S1131520F90134962A8D3B8D4C8D5D8D89019A018C
S1131530AC01BD01CF010E94452419821A821B828D
S11315401C820E94B121898B8A8D9B8DAC8DBD8DAF
S1131550892B8A2B8B2B09F45FC08989882309F492
S1131560D9D70E947F29DC01CB0189839A83AB837D
S1131570BC8389819A81AB81BC8188279927AA275A
S1131580B270892B8A2B8B2B09F03DC00FB6F894CF
S11315900F9289859A85FC0180819181A281B38112
S11315A089839A83AB83BC832C893D894E895F8967
S11315B089819A81AB81BC81098DBC01CD014FD158
S11315C08823E9F0888D8823D1F089859A85FC01E8
S11315D020813181428153818C899D89AE89BF8963
S11315E080959095A095B09582239323A423B52349
S11315F029853A85F90180839183A283B38381E0AD
S11316008B870F900FBE89819A81AB81BC81BB27E8
S113161089839A83AB83BC8389819A81AB81BC81A2
S1131620BC01CD016D960FB6F894DEBF0FBECDBFE1
S1131630DF91CF911F910F91FF90EF90DF90CF90AA
S11316400895CF93DF93CDB7DEB76D970FB6F894B7
S1131650DEBF0FBECDBF998F888F4A8F5B8F6C8F93
S11316607D8F1B821C821D821E82888D998D998795
S113167088871F828885998504969B878A878A85AF
S11316809B8503969D878C870E94A4218A859B85D0
S1131690FC01878190859A83898388859985FC01DB
S11316A020813181428153818A8D9B8DAC8DBD8D8A
S11316B0822B932BA42BB52B28853985F9018083A4
S11316C09183A283B38395C089819A81FC0184812B
S11316D095819F878E8789819A81FC018081918180
S11316E0A281B381888B998BAA8BBB8B1F8288893B
S11316F09989AA89BB8988279927AA278C8B9D8BCE
S1131700AE8BBF8B88899989AA89BB89BB27888BB3
S1131710998BAA8BBB8B8C899D89AE89BF898827BD
S11317209927AA27B470892B8A2B8B2BB1F488852F
S11317309985FC012081318142815381888999896D
S1131740AA89BB8982239323A423B523892B8A2BBB
S11317508B2BE9F081E08F831AC088859985FC0181
S1131760208131814281538188899989AA89BB89E1
S1131770282339234A235B2388899989AA89BB8929
S1131780281739074A075B0711F481E08F838F819B
S1131790882359F18C899D89AE89BF898827992727
S11317A0AA27B170892B8A2B8B2B81F02B813C814A
S11317B04D815E8188899989AA89BB89822B932B63
S11317C0A42BB52B8B839C83AD83BE83888599859D
S11317D0FC0180819181A281B381B26029813A8127
S11317E0AC01BD01C9010E942D258E859F859A8378
S11317F0898329813A818C859D852817390709F0C9
S113180063CF88859985FC01208131814281538190
S11318108B819C81AD81BE8180959095A095B0957A
S113182082239323A423B52328853985F901808352
S11318309183A283B3830E94B12188859985FC0199
S113184080819181A281B381BC01CD016D960FB6D7
S1131850F894DEBF0FBECDBFDF91CF9108950F93F3
S1131860CF93DF93CDB7DEB72A970FB6F894DEBFD8
S11318700FBECDBF6A837B838C839D832E833F837E
S1131880488759870A8719828A85882399F42A8187
S11318903B814C815D818E819F81A885B98582239E
S11318A09323A423B523892B8A2B8B2BD1F081E09E
S11318B0898317C02A813B814C815D818E819F8100
S11318C0A885B985282339234A235B238E819F81E8
S11318D0A885B985281739074A075B0711F481E001
S11318E0898389812A960FB6F894DEBF0FBECDBFD7
S11318F0DF91CF910F910895CF93DF93CDB7DEB7EA
S11319002A970FB6F894DEBF0FBECDBF9A8789879A
S11319101E821D820E94A4218091681790916917EC
S1131920892B09F44ED120916E1730916F17898558
S11319309A8582239323892B09F0CAC089859A85C5
S1131940892B41F084E090E029853A85820F931F2A
S11319509A87898789859A85892B09F4B9C08091EA
S11319606A1790916B1729853A858217930708F4B3
S1131970AFC084E697E19C838B8380916417909138
S113198065179A8389830BC089819A819C838B8391
S113199089819A81FC01808191819A8389838981DB
S11319A09A81FC012281338189859A852817390718
S11319B038F489819A81FC0180819181892B21F7F6
S11319C0809168179091691729813A8128173907FE
S11319D009F47EC08B819C81FC012081318184E0EB
S11319E090E0820F931F9E838D8389819A81FC01ED
S11319F0208131818B819C81FC0131832083898109
S1131A009A81FC012281338189859A85281B390BAF
S1131A1084E090E0880F991F8217930700F52981CD
S1131A203A8189859A85820F931F98878F8389814C
S1131A309A81FC012281338189859A85281B390B7F
S1131A408F819885FC013383228389819A8129853A
S1131A503A85FC01338322838F81988532D120918A
S1131A606A1730916B1789819A81FC018281938175
S1131A70A901481B590BCA0190936B1780936A17ED
S1131A8020916A1730916B1780916C1790916D17A4
S1131A902817390740F480916A1790916B17909337
S1131AA06D1780936C1789819A81FC01228133819F
S1131AB080916E1790916F17282B392B89819A8109
S1131AC0FC013383228389819A81FC011182108273
S1131AD00E94B1218D819E81892B11F40E943232A2
S1131AE08D819E812A960FB6F894DEBF0FBECDBFBE
S1131AF0DF91CF910895CF93DF9300D000D0CDB77D
S1131B00DEB79E838D838D819E819A8389838D81A7
S1131B109E81892B09F44BC084E090E091958195D6
S1131B20910929813A81820F931F9A83898389813C
S1131B309A819C838B838B819C81FC0122813381DC
S1131B4080916E1790916F1782239323892B79F1DB
S1131B508B819C81FC0180819181892B41F58B8152
S1131B609C81FC012281338180916E1790916F17C3
S1131B7080959095282339238B819C81FC013383A4
S1131B8022830E94A4218B819C81FC0122813381C8
S1131B9080916A1790916B17820F931F90936B1724
S1131BA080936A178B819C818CD00E94B1210000A4
S1131BB026960FB6F894DEBF0FBECDBFDF91CF914E
S1131BC00895CF93DF93CDB7DEB728970FB6F89477
S1131BD0DEBF0FBECDBF80EA9FE09A83898384EC89
S1131BE097E09C838B838B819C819E838D838D81E5
S1131BF09E819093651780936417109267171092D3
S1131C0066172D813E8189819A81820F931F9C835F
S1131C108B8384E090E02B813C81A901481B590B04
S1131C20CA019C838B838B819C81909369178093D9
S1131C3068178091681790916917FC0113821282CA
S1131C408091681790916917FC01118210828D812F
S1131C509E8198878F838F8198852B813C81281B57
S1131C60390B8F819885FC01338322832091681777
S1131C70309169178F819885FC01318320838F818E
S1131C809885FC018281938190936D1780936C17E2
S1131C908F819885FC018281938190936B17809347
S1131CA06A1780E090E890936F1780936E17000096
S1131CB028960FB6F894DEBF0FBECDBFDF91CF914B
S1131CC00895CF93DF9300D000D0CDB7DEB79E83C5
S1131CD08D8384E697E19A83898307C089819A81F9
S1131CE0FC01808191819A83898389819A81FC0195
S1131CF0208131818D819E812817390778F389816C
S1131D009A819C838B8389819A81FC01828193814E
S1131D102B813C81280F391F8D819E81281739071B
S1131D20A9F489819A81FC01228133818D819E816C
S1131D30FC0182819381280F391F89819A81FC01DA
S1131D403383228389819A819E838D838D819E81B1
S1131D509C838B838D819E81FC01828193812B8165
S1131D603C81280F391F89819A81FC0180819181EE
S1131D7028173907C1F589819A81FC0120813181B5
S1131D8080916817909169172817390711F18D818F
S1131D909E81FC012281338189819A81FC018081A9
S1131DA09181FC0182819381280F391F8D819E814D
S1131DB0FC013383228389819A81FC018081918192
S1131DC0FC01208131818D819E81FC01318320833E
S1131DD014C020916817309169178D819E81FC0190
S1131DE0318320830AC089819A81FC012081318159
S1131DF08D819E81FC013183208329813A818D81EB
S1131E009E812817390739F089819A812D813E8175
S1131E10FC0131832083000026960FB6F894DEBFC0
S1131E200FBECDBFDF91CF910895CF93DF931F9263
S1131E301F92CDB7DEB79A83898389819A819C01E9
S1131E402D5F3F4F89819A81FC013283218329814F
S1131E503A818FEF9FEFDC01F90183839483A5839B
S1131E60B68389819A819C012D5F3F4F89819A8134
S1131E70FC013087278389819A819C012D5F3F4F24
S1131E8089819A81FC013287218789819A81FC01A9
S1131E90108200000F900F90DF91CF910895CF939F
S1131EA0DF931F921F92CDB7DEB79A83898389810E
S1131EB09A81FC011386128600000F900F90DF9127
S1131EC0CF910895CF93DF9300D000D0CDB7DEB784
S1131ED09C838B837E836D838B819C81FC018181B8
S1131EE092819A8389838D819E8129813A81FC0123
S1131EF03583248389819A81FC01268137818D81F0
S1131F009E81FC013783268389819A81FC01868125
S1131F1097812D813E81FC013583248389819A81B7
S1131F202D813E81FC01378326838D819E812B8107
S1131F303C81FC01338722878B819C81FC01808159
S1131F4021E0280F8B819C81FC01208300002696D0
S1131F500FB6F894DEBF0FBECDBFDF91CF910895C9
S1131F60CF93DF93CDB7DEB72A970FB6F894DEBFD1
S1131F700FBECDBF98878F837A87698789859A85B5
S1131F80FC0180819181A281B3818B839C83AD8389
S1131F90BE838B819C81AD81BE818F3F9F4FAF4FAC
S1131FA0BF4F41F48F819885FC01818592859A8386
S1131FB0898320C08F81988503969A83898307C07B
S1131FC089819A81FC01848195819A83898389819D
S1131FD09A81FC0184819581FC01208131814281B7
S1131FE053818B819C81AD81BE8182179307A407A5
S1131FF0B50730F789819A81FC012481358189856F
S11320009A85FC013583248389859A85FC01848122
S1132010958129853A85FC013783268389859A85AC
S113202029813A81FC013783268389819A81298514
S11320303A85FC013583248389859A852F813885E7
S1132040FC01338722878F819885FC01808121E000
S1132050280F8F819885FC01208300002A960FB6F3
S1132060F894DEBF0FBECDBFDF91CF910895CF931B
S1132070DF9300D01F92CDB7DEB79C838B838B8117
S11320809C81FC01828593859A8389838B819C81C1
S1132090FC01848195812B813C81F9012681378162
S11320A0FC01378326838B819C81FC018681978187
S11320B02B813C81F90124813581FC013583248302
S11320C089819A81FC01218132818B819C8128172D
S11320D0390751F48B819C81FC01268137818981E8
S11320E09A81FC01328321838B819C81FC011386BC
S11320F0128689819A81FC0180812FEF280F8981C2
S11321009A81FC01208389819A81FC0180810F904E
S11321100F900F900F90DF91CF910895CF93DF939D
S1132120CDB7DEB728970FB6F894DEBF0FBECDBF8C
S11321309C838B837E836D8358874F838B819C81A3
S113214021E1FC0120838B819C8101979C838B83FB
S11321508B819C8122E2FC0120838B819C810197ED
S11321609C838B838B819C8123E3FC0120838B8163
S11321709C8101979C838B838D819E819A83898323
S113218029818B819C81FC0120838B819C81019717
S11321909C838B8389819A81892F99279A83898348
S11321A029818B819C81FC0120838B819C810197F7
S11321B09C838B838B819C81FC0110828B819C810D
S11321C001979C838B838B819C81FC0110828B8182
S11321D09C8101979C838B838B819C8120E8FC01EB
S11321E020838B819C8101979C838B838B819C8131
S11321F0FC0110828B819C8101979C838B838B8152
S11322009C81FC0110828B819C8101979C838B8330
S11322108B819C81FC0110828B819C8101979C8322
S11322208B838B819C8122E0FC0120838B819C81A8
S113223001979C838B838B819C8123E0FC01208309
S11322408B819C8101979C838B838B819C8124E06F
S1132250FC0120838B819C8101979C838B838B81E0
S11322609C8125E0FC0120838B819C8101979C83C8
S11322708B838B819C8126E0FC0120838B819C8154
S113228001979C838B838B819C8127E0FC012083B5
S11322908B819C8101979C838B838B819C8128E01B
S11322A0FC0120838B819C8101979C838B838B8190
S11322B09C8129E0FC0120838B819C8101979C8374
S11322C08B838B819C8120E1FC0120838B819C8109
S11322D001979C838B838B819C8121E1FC0120836A
S11322E08B819C8101979C838B838B819C8122E1D0
S11322F0FC0120838B819C8101979C838B838B8140
S11323009C8123E1FC0120838B819C8101979C8328
S11323108B838B819C8124E1FC0120838B819C81B4
S113232001979C838B838B819C8125E1FC01208315
S11323308B819C8101979C838B838B819C8126E17B
S1132340FC0120838B819C8101979C838B838B81EF
S11323509C8127E1FC0120838B819C8101979C83D4
S11323608B838B819C8128E1FC0120838B819C8160
S113237001979C838B838B819C8129E1FC012083C1
S11323808B819C8101979C838B838B819C8120E230
S1132390FC0120838B819C8101979C838B838B819F
S11323A09C8121E2FC0120838B819C8101979C8389
S11323B08B838B819C8122E2FC0120838B819C8115
S11323C001979C838B838B819C8123E2FC01208376
S11323D08B819C8101979C838B838F8198859A83C1
S11323E0898329818B819C81FC0120838B819C8141
S11323F001979C838B8389819A81892F99279A835A
S1132400898329818B819C81FC0120838B819C8120
S113241001979C838B838B819C8126E2FC01208322
S11324208B819C8101979C838B838B819C8127E288
S1132430FC0120838B819C8101979C838B838B81FE
S11324409C8128E2FC0120838B819C8101979C83E1
S11324508B838B819C8129E2FC0120838B819C816D
S113246001979C838B838B819C8120E3FC012083D7
S11324708B819C8101979C838B838B819C8121E33D
S1132480FC0120838B819C8101979C838B838B81AE
S11324909C8128960FB6F894DEBF0FBECDBFDF91A6
S11324A0CF910895CF93DF93CDB7DEB7FFD0A0913E
S11324B07017B0917117CD91CDBFDD91DEBFFF9143
S11324C0EF91DF91CF91BF91AF919F918F917F91C8
S11324D06F915F914F913F912F911F910F91FF90B9
S11324E0EF90DF90CF90BF90AF909F908F907F90B0
S11324F06F905F904F903F902F901F900F900CBE65
S11325000F900BBE0F900FBE0F90089581E0DF91E6
S1132510CF9108950F920FB6F8940F920BB60F92C5
S11325200CB60F921F9211242F923F924F925F92FA
S11325306F927F928F929F92AF92BF92CF92DF92CF
S1132540EF92FF920F931F932F933F934F935F93B9
S11325506F937F938F939F93AF93BF93CF93DF93A7
S1132560EF93FF93A0917017B09171170DB60D9270
S11325700EB60D920E947C23A0917017B091711732
S1132580CD91CDBFDD91DEBFFF91EF91DF91CF9172
S1132590BF91AF919F918F917F916F915F914F9177
S11325A03F912F911F910F91FF90EF90DF90CF906B
S11325B0BF90AF909F908F907F906F905F904F905F
S11325C03F902F901F900F900CBE0F900BBE0F905A
S11325D00FBE0F90089500000F920FB6F8940F925B
S11325E00BB60F920CB60F921F9211242F923F92AA
S11325F04F925F926F927F928F929F92AF92BF920F
S1132600CF92DF92EF92FF920F931F932F933F93FA
S11326104F935F936F937F938F939F93AF93BF93E6
S1132620CF93DF93EF93FF93A0917017B09171173D
S11326300DB60D920EB60D9283E590E0FC0110826A
S11326400E946722882311F00E947C23A0917017B6
S1132650B0917117CD91CDBFDD91DEBFFF91EF91A8
S1132660DF91CF91BF91AF919F918F917F916F91A6
S11326705F914F913F912F911F910F91FF90EF9098
S1132680DF90CF90BF90AF909F908F907F906F908E
S11326905F904F903F902F901F900F900CBE0F9023
S11326A00BBE0F900FBE0F9008950000CF93DF93E1
S11326B0CDB7DEB7A89580E090E088709927892B84
S11326C011F080EE01C080EC90E09770892B982F78
S11326D088E10FB6F894A895809360000FBE90939C
S11326E060000000DF91CF91089576DF1895000017
S11326F0CF93DF9300D01F921F92CDB7DEB79C8398
S11327008B836D838B819C819A8389830FB6F89424
S11327100F9289819A81FC018081918129813A817A
S1132720F901278D422F50E029813A81F90120A136
S1132730222F30E0429FB001439F700D529F700DD5
S113274011249B01280F391F89819A81FC0135834B
S1132750248389819A81FC01168E89819A81FC01E6
S11327602081318189819A81FC013383228389818B
S11327709A81FC012081318189819A81FC01878DB4
S1132780882F90E0BC016150710989819A81FC0114
S113279080A1482F50E0649FC001659F900D749FF5
S11327A0900D1124280F391F89819A81FC013783E8
S11327B0268389819A812FEFFC0121A389819A8143
S11327C02FEFFC0122A38D81882379F489819A81DA
S11327D0FC018085882389F089819A8108960E946A
S11327E0C324882351F096DE08C089819A81089613
S11327F01CDB89819A81439618DB0F900FBE81E020
S11328000F900F900F900F900F90DF91CF9108953C
S11328100F931F93CF93DF93CDB7DEB729970FB6EE
S1132820F894DEBF0FBECDBF8F8368874987888544
S1132830882319F41A8219820FC08F81482F50E01F
S11328408885282F30E0429FC001439F900D529FFE
S1132850900D11249A83898389819A8185964CD815
S11328609C838B838B819C81892B99F08B819C81A8
S11328709E838D838D819E8185969E838D832B81FE
S11328803C818D819E8189012985AC0168858F8178
S11328900DD08B819C8129960FB6F894DEBF0FBEB4
S11328A0CDBFDF91CF911F910F9108950F931F9387
S11328B0CF93DF93CDB7DEB727970FB6F894DEBF7B
S11328C00FBECDBF89836A835C834B832D831F83B3
S11328D00E838A81882341F48E819F812E813F81DA
S11328E0FC013183208307C08E819F812B813C8131
S11328F0FC01318320838E819F812981FC01278FF4
S11329008E819F812A81FC0120A38E819F8161E0B9
S1132910EFDE8E819F812D81FC0124A30000279688
S11329200FB6F894DEBF0FBECDBFDF91CF911F91DC
S11329300F9108950F93CF93DF931F921F92CDB7FA
S1132940DEB79A83898389819A81892BB9F0898139
S11329509A81FC011582148289819A81FC01118279
S1132960108289819A81FC01168289819A8100E012
S113297020E030E0A90160E070E025D000000F9075
S11329800F90DF91CF910F910895CF93DF9300D0F3
S11329901F921F92CDB7DEB78D8381E089831A829F
S11329A04D816A81898134DF9C838B838B819C81F7
S11329B0C1DF8B819C810F900F900F900F900F902F
S11329C0DF91CF9108950F93CF93DF93CDB7DEB707
S11329D062970FB6F894DEBF0FBECDBF9B878A8780
S11329E07D876C872E873F87488B598B0A8B19828A
S11329F08A859B859B838A830FB6F8940F928A817C
S1132A009B81FC01268D8A819B81FC01878D28177F
S1132A1018F08A898230F9F42C853D858A819B815E
S1132A204A89B901A1D28C838A819B81FC01838963
S1132A30882349F08A819B8143960E94C32488237A
S1132A4031F068DD04C08C81882309F063DD0F90C8
S1132A500FBE81E064C08E859F85A889B989892BC2
S1132A608A2B8B2B21F40F900FBE80E058C08981F4
S1132A70882331F4CE0105960E94BE2581E0898326
S1132A800F900FBE0E94A4210FB6F8940F928A8172
S1132A909B81FC0181A18F3F21F48A819B81FC01F0
S1132AA011A28A819B81FC0182A18F3F21F48A813A
S1132AB09B81FC0112A20F900FBE9E01225F3F4F2B
S1132AC0CE010596B9010E94E125882311F58A817A
S1132AD09B81E6D38823B9F08E859F85A889B9891F
S1132AE02A813B81285F3F4FAC01BD01C9010E948F
S1132AF01A248A819B8159D30E94B121882309F029
S1132B007BCF08DD79CF8A819B814FD30E94B1218D
S1132B1073CF8A819B8149D30E94B12180E0629660
S1132B200FB6F894DEBF0FBECDBFDF91CF910F91EA
S1132B300895CF93DF93CDB7DEB72C970FB6F894F3
S1132B40DEBF0FBECDBF9F838E83798768875B8787
S1132B504A872C878E819F819B838A831C828A81EA
S1132B609B81FC01268D8A819B81FC01878D28171E
S1132B7018F08C85823081F58A819B81FC0182A1C9
S1132B808D83288539858A819B814C85B901ECD157
S1132B908D818F3FB9F48A819B81FC0183898823CD
S1132BA0C1F08A819B8143960E94C324882389F0C3
S1132BB08A859B85892B69F08A859B8521E0FC01A8
S1132BC0208307C08D818F5F282F8A819B81FC0120
S1132BD022A381E0898301C0198289812C960FB6D2
S1132BE0F894DEBF0FBECDBFDF91CF910895CF9390
S1132BF0DF93CDB7DEB761970FB6F894DEBF0FBE93
S1132C00CDBF9B878A877D876C872E873F87488BBC
S1132C10598B19828A859B859B838A830FB6F89486
S1132C200F928A819B81FC01868D8C838C81882301
S1132C30F9F02C853D858A819B81B90165D28C810F
S1132C402FEF280F8A819B81FC01268F8A819B812B
S1132C50FC018085882341F08A819B8108960E942B
S1132C60C324882309F056DC0F900FBE81E06AC0AC
S1132C708E859F85A889B989892B8A2B8B2B21F472
S1132C800F900FBE80E05EC08981882331F4CE01AD
S1132C9005960E94BE2581E089830F900FBE0E9495
S1132CA0A4210FB6F8940F928A819B81FC0181A123
S1132CB08F3F21F48A819B81FC0111A28A819B812F
S1132CC0FC0182A18F3F21F48A819B81FC0112A225
S1132CD00F900FBE9E01225F3F4FCE010596B901B2
S1132CE00E94E125882311F58A819B81BCD2882327
S1132CF0B9F08E859F85A889B9892A813B812D5E8B
S1132D003F4FAC01BD01C9010E941A248A819B81F5
S1132D104CD20E94B121882309F080CFFBDB7ECF07
S1132D208A819B8142D20E94B12178CF8A819B8182
S1132D303CD20E94B1218A819B8195D2882309F4D7
S1132D406DCF80E061960FB6F894DEBF0FBECDBFA5
S1132D50DF91CF910895CF93DF93CDB7DEB761971D
S1132D600FB6F894DEBF0FBECDBF9D878C874E870C
S1132D705F87688B798B19828C859D859C838B8377
S1132D801A820FB6F8940F928B819C81FC01868D78
S1132D908D838D81882341F18D812FEF280F8B81C5
S1132DA09C81FC01268F8B819C81FC018081918117
S1132DB0892B41F40E94C6299C018B819C81FC01D2
S1132DC0358324838B819C81FC018085882341F099
S1132DD08B819C8108960E94C324882309F09ADB86
S1132DE00F900FBE81E093C08E859F85A889B98915
S1132DF0892B8A2B8B2B21F40F900FBE80E087C088
S1132E008981882331F4CE0107960E94BE2581E092
S1132E1089830F900FBE0E94A4210FB6F8940F92DD
S1132E208B819C81FC0181A18F3F21F48B819C814A
S1132E30FC0111A28B819C81FC0182A18F3F21F4B2
S1132E408B819C81FC0112A20F900FBE9E01225F18
S1132E503F4FCE010796B9010E94E125882309F06E
S1132E6036C08B819C81FFD1882359F18B819C8151
S1132E70FC0180819181892B69F40FB6F8940F923B
S1132E808B819C81FC01848195810E9485278A83A2
S1132E900F900FBE8E859F85A889B9892B813C81AF
S1132EA02D5E3F4FAC01BD01C9010E941A248B81E4
S1132EB09C817BD10E94B121882309F062CF2ADB57
S1132EC060CF8B819C8171D10E94B1215ACF8B81BB
S1132ED09C816BD10E94B1218B819C81C4D18823B8
S1132EE009F44FCF8A81882389F00FB6F8940F92A2
S1132EF08B819C8115D08E838B819C81FC01848184
S1132F0095816E810E94CF280F900FBE80E061965C
S1132F100FB6F894DEBF0FBECDBFDF91CF910895F9
S1132F20CF93DF9300D0CDB7DEB79B838A838A81AA
S1132F309B81FC018389882379F08A819B81FC0130
S1132F40828D938DFC0180819181A281B381982F20
S1132F5084E0891B898301C0198289810F900F90B5
S1132F600F90DF91CF910895CF93DF93CDB7DEB764
S1132F7027970FB6F894DEBF0FBECDBF9C838B831B
S1132F807E836D834F8319828B819C81FC01868DA6
S1132F908A838B819C81FC0180A18823B1F48B817D
S1132FA09C81FC0180819181892B09F09CC08B81DB
S1132FB09C81FC01848195810E94412889838B81B5
S1132FC09C81FC01158214828EC08F818823D9F5DF
S1132FD08B819C81FC0180A1482F50E08B819C81D6
S1132FE0FC01828193812D813E81B9010E94554A61
S1132FF08B819C81FC01228133818B819C81FC012A
S113300080A1882F90E0280F391F8B819C81FC01BF
S1133010338322838B819C81FC01228133818B81C8
S11330209C81FC01848195812817390708F45BC0D1
S11330308B819C81FC01208131818B819C81FC01ED
S11330403383228350C08B819C81FC0180A1482F53
S113305050E08B819C81FC01868197812D813E818A
S1133060B9010E94554A8B819C81FC0126813781DC
S11330708B819C81FC0180A1882F90E091958195A2
S11330809109280F391F8B819C81FC01378326838A
S11330908B819C81FC01268137818B819C81FC0181
S11330A08081918128173907A8F48B819C81FC01C8
S11330B0248135818B819C81FC0180A1882F90E043
S11330C0919581959109280F391F8B819C81FC0171
S11330D0378326838F81823031F48A81882319F0E3
S11330E08A8181508A838A8121E0280F8B819C8187
S11330F0FC01268F898127960FB6F894DEBF0FBE98
S1133100CDBFDF91CF910895CF93DF9300D01F926D
S1133110CDB7DEB79A8389837C836B8389819A8157
S1133120FC0180A18823C9F189819A81FC0126814F
S1133130378189819A81FC0180A1882F90E0280F32
S1133140391F89819A81FC013783268389819A8179
S1133150FC012681378189819A81FC0184819581D2
S11331602817390750F089819A81FC012081318127
S113317089819A81FC013783268389819A81FC01A4
S113318080A1482F50E089819A81FC0126813781F2
S11331908B819C81B9010E94554A00000F900F90C9
S11331A00F900F90DF91CF910895CF93DF9300D0CC
S11331B01F92CDB7DEB79C838B830FB6F8940F9222
S11331C08B819C81FC0182A1898312C08B819C81AB
S11331D0FC018389882381F08B819C8143960E9422
S11331E0C324882311F00E948A268981815089830F
S11331F0898118165CF301C000008B819C812FEF3C
S1133200FC0122A30F900FBE0FB6F8940F928B818E
S11332109C81FC0181A18A8312C08B819C81FC0169
S11332208085882381F08B819C8108960E94C32429
S1133230882311F00E948A268A8181508A838A8198
S113324018165CF301C000008B819C812FEFFC01F8
S113325021A30F900FBE00000F900F900F900F90BE
S1133260DF91CF910895CF93DF9300D0CDB7DEB730
S11332709B838A830FB6F8940F928A819B81FC0109
S1133280868D882319F481E0898301C019820F9007
S11332900FBE89810F900F900F90DF91CF91089509
S11332A0CF93DF9300D0CDB7DEB79B838A830FB66D
S11332B0F8940F928A819B81FC01268D8A819B81DF
S11332C0FC01878D281719F481E0898301C01982D4
S11332D00F900FBE89810F900F900F90DF91CF91C7
S11332E00895CF93DF93CDB7DEB729970FB6F8943F
S11332F0DEBF0FBECDBF9C838B834D835E836F8304
S1133300788729878B819C819A8389830FB6F89467
S11333100F9289819A81FC0181A18F3F21F48981D7
S11333209A81FC0111A289819A81FC0182A18F3FBB
S113333021F489819A81FC0112A20F900FBE898128
S11333409A81FC01868D882371F489819A81FC011C
S113335073968D819E81AF81B8852985AC01BD01AD
S1133360CF010E948A2489819A811FDF0000299657
S11333700FB6F894DEBF0FBECDBFDF91CF91089595
S11333800F93CF93DF93CDB7DEB728970FB6F8949A
S1133390DEBF0FBECDBF9D838C837F836E83488742
S11333A08885813019F481E0898301C019828E8176
S11333B09F81892B21F481E090E09F838E838C810F
S11333C09D8101969D838C838C819D8140960E9472
S11333D07C0C9B838A838A819B81892B69F08A81F7
S11333E09B81BC01605F7F4F2E813F814C815D8159
S11333F08A819B81098111D58A819B8128960FB688
S1133400F894DEBF0FBECDBFDF91CF910F91089529
S11334100F93CF93DF9300D000D0CDB7DEB79E8358
S11334208D838D819E819B838A8319828A819B816E
S1133430DC011F968C918C830FB6F8940F928A81CD
S11334409B81FC0180859185892B71F58A819B8103
S1133450DC011A968D919C911B97892B29F58A8101
S11334609B81DC011E96EC918A819B81DC0116967E
S11334702D913C9117978A819B81DC0114964D9183
S11334805C9115978A819B81DC011C966D917C91DE
S11334901D978A819B810E2FC0D481E089838A8104
S11334A09B812C81FC0127870F900FBE8981269672
S11334B00FB6F894DEBF0FBECDBFDF91CF910F9151
S11334C00895CF93DF9300D000D0CDB7DEB79E83AD
S11334D08D838D819E819C838B838B819C81FC0158
S11334E0248135818B819C81FC0180819181820FB3
S11334F0931F9A8389838B819C81FC0182819381B0
S113350029813A81A901481B590BCA019A838983ED
S113351089819A8101979A8389838B819C81FC019B
S11335202481358189819A818217930768F08B8180
S11335309C81FC018481958129813A81A901481BE0
S1133540590BCA019A83898389819A8126960FB679
S1133550F894DEBF0FBECDBFDF91CF910895CF9217
S1133560DF92EF92FF920F931F93CF93DF93CDB728
S1133570DEB767970FB6F894DEBF0FBECDBF9F8747
S11335808E87798B688B5B8B4A8B0C8B1D8B2E8B78
S11335903F8B8E859F859E838D831A8219828A89AB
S11335A09B899C838B838D819E81FC018685882FDA
S11335B090E081709927892B29F08B819C81029658
S11335C09C838B838C899D89AE89BF89892B8A2BA7
S11335D08B2B09F445C0CE0109960E9496250FB69F
S11335E0F8940F928D819E816CDF9A83898329815F
S11335F03A818B819C812817390768F480E090E038
S11336000E94692C0E9459279C018D819E81FC0196
S11336103387228703C00F900FBE22C00F900FBEC6
S11336208C899D89AE89BF896C017D0100E010E021
S113363020E030E0A90160E070E0CB010E94E029C5
S11336408D819E81FC01138612869E012C5E3F4F64
S1133650CE010996B9010E94E125882309F4BFCF60
S113366089819A81892B29F48D819E812ADF9A830D
S11336708983EB81FC8129813A814A895B89688944
S113368079898D819E818F01BAD098878F838F81AC
S11336909885892B39F18D819E817CD39C018D8104
S11336A09E81FC018681978128173907D8F04CD672
S11336B08D819E81FC0180859185892B91F08D817E
S11336C09E81FC018085918500E010E020E040E0CF
S11336D050E0BA010E94932A8D819E81FC011186DB
S11336E010863FD68F81988567960FB6F894DEBF13
S11336F00FBECDBFDF91CF911F910F91FF90EF903F
S1133700DF90CF900895EF92FF920F931F93CF9382
S1133710DF93CDB7DEB761970FB6F894DEBF0FBE67
S1133720CDBF9B878A877D876C875F874E87398B60
S1133730288B8A859B859C838B838E859F859A8322
S113374089838B819C81FC018685882F90E0817020
S11337509927892B29F089819A8102969A838983F2
S11337608B819C81AEDE9E838D83E981FA812D81DC
S11337703E814E855F856C857D858B819C818F0123
S11337803ED098878F838F819885892B49F18B81CF
S11337909C8100D39C018B819C81FC018681978153
S11337A028173907E8F019868B819C81FC018085F4
S11337B09185892BA9F08B819C81FC018085918561
S11337C028893989790100E010E020E040E050E0E8
S11337D0BA010E94712B8B819C81FC011186108699
S11337E08F81988561960FB6F894DEBF0FBECDBF6A
S11337F0DF91CF911F910F91FF90EF9008950F9358
S11338001F93CF93DF93CDB7DEB761970FB6F894CC
S1133810DEBF0FBECDBF998788877B876A875D87A8
S11338204C873F872E87198B088B8E859F85892B24
S113383011F4198233C088859985FC018685882F07
S113384090E081709927892BA9F481E089838C8584
S11338509D859D838C838E859F859F838E832C81FC
S11338603D818E819F812817390708F4C9019D87FE
S11338708C8714C02E853F85888999892817390734
S113388060F081E089839E01245F3F4F888599859C
S113389042E050E0B90148D101C0198289818823EE
S11338A059F04C855D852A853B8588859985B901C4
S11338B03BD19B838A8302C01B821A828A819B81AB
S11338C061960FB6F894DEBF0FBECDBFDF91CF91E6
S11338D01F910F910895CF92DF92EF92FF920F9371
S11338E01F93CF93DF93CDB7DEB762970FB6F894EB
S11338F0DEBF0FBECDBF9A8789877C876B875E87C3
S11339004D870F87188B298B3A8B89859A859887E1
S11339108F831A8219828F819885FC018685882F6E
S113392090E081709927892B29F082E090E09E83B2
S11339308D8302C01E821D828F859889A989BA89C8
S1133940892B8A2B8B2B09F43FC00FB6F8940F9266
S11339508F8198851FD29C838B832B813C818D81A1
S11339609E818217930760F080E090E00E94692CAA
S11339700E9459279C018F819885FC0131872087FB
S11339800F900FBE2B813C818D819E8182179307FE
S113399000F18F859889A989BA896C017D0100E0BD
S11339A010E020E030E0A90160E070E0CB010E946B
S11339B0E0298F819885FC01118610868F81988576
S11339C0E9D19C838B8305C08F819885E3D19C8347
S11339D08B832B813C818D819E818217930768F5AF
S11339E0ED81FE812B813C814D855E856B857C85D7
S11339F08F8198858F0132D09A83898389819A81B6
S1133A00892BD9F0A1D48F819885FC018285938577
S1133A10892B91F08F819885FC018285938500E044
S1133A2010E020E040E050E0BA010E94932A8F8128
S1133A309885FC011386128694D489819A816296B2
S1133A400FB6F894DEBF0FBECDBFDF91CF911F91AB
S1133A500F91FF90EF90DF90CF9008950F931F93F5
S1133A60CF93DF93CDB7DEB762970FB6F894DEBF7E
S1133A700FBECDBF9A8789877C876B875E874D870A
S1133A80388B2F871A8B098B89899A89892B81F125
S1133A9089859A85FC01808191819C838B832F8504
S1133AA0388949895A89BE01695F7F4F89859A851A
S1133AB0CAD08F8198859A8389832F85388989898B
S1133AC09A89A901481B590BCA01988B8F872981B0
S1133AD03A818D859E858217930770F489859A852E
S1133AE02B813C81FC01318320831A82198204C01A
S1133AF08D859E859A8389832F85388949815A814A
S1133B006B857C8589859A859ED09E838D838D81E6
S1133B109E8162960FB6F894DEBF0FBECDBFDF91D3
S1133B20CF911F910F910895CF93DF93CDB7DEB757
S1133B302E970FB6F894DEBF0FBECDBF9A87898744
S1133B407C876B875E874D8789859A85FC01828196
S1133B5093819A83898389859A85FC01248135819F
S1133B6089819A81A901481B590BCA019C838B83C3
S1133B708D859E859E838D832B813C818D819E8145
S1133B802817390708F4C90198878F8389859A858E
S1133B90FC012485358589819A81820F931F4F8189
S1133BA058852B853C85B9010E94554A2D853E8553
S1133BB08F81988582179307A8F42D853E858F8180
S1133BC09885A901481B590B2B853C858F819885C5
S1133BD0280F391F89859A85FC0184859585B9014B
S1133BE00E94554A29813A818D859E85820F931FB3
S1133BF09A83898389859A85FC0124813581898109
S1133C009A818217930768F089859A85FC018481DB
S1133C10958129813A81A901481B590BCA019A83CC
S1133C20898389859A8529813A81FC01338322839A
S1133C308D859E852E960FB6F894DEBF0FBECDBF40
S1133C40DF91CF910895CF93DF93CDB7DEB7669719
S1133C500FB6F894DEBF0FBECDBF988B8F877A8BDB
S1133C60698B5C8B4B8B3E8B2D8B8D899E899C83C2
S1133C708B838B899C899E838D832B813C818D8151
S1133C809E812817390708F4C90198878F838F818B
S1133C909885892B09F473C08F859889FC018081EC
S1133CA091819A8389838F859889FC012481358148
S1133CB089819A81A901481B590BCA019A8789876E
S1133CC08F8198859C878B8729853A858B859C85F0
S1133CD02817390708F4C9019E878D878F8598892D
S1133CE0FC012485358589819A81280F391F4D85EA
S1133CF05E8589899A89B9010E94554A2F81388540
S1133D008D859E8582179307A0F42F8138858D8534
S1133D109E85A901481B590B8F859889FC016485F0
S1133D20758529893A898D859E85820F931F0E9406
S1133D30554A29813A818F819885820F931F9A83EE
S1133D4089838F859889FC012481358189819A81B1
S1133D508217930768F08F859889FC018481958187
S1133D6029813A81A901481B590BCA019A83898385
S1133D708F85988929813A81FC01318320838F8141
S1133D80988566960FB6F894DEBF0FBECDBFDF915F
S1133D90CF910895CF93DF9300D01F92CDB7DEB7B4
S1133DA09C838B838B819C81FC01248135818B8155
S1133DB09C81FC0182819381820F931F9A83898362
S1133DC08B819C81FC018081918129813A81A901A7
S1133DD0481B590BCA019A8389838B819C81FC01FE
S1133DE02481358189819A818217930768F08B81B8
S1133DF09C81FC018481958129813A81A901481B18
S1133E00590BCA019A83898389819A810F900F90F3
S1133E100F900F90DF91CF9108950F93CF93DF937D
S1133E20CDB7DEB729970FB6F894DEBF0FBECDBF6E
S1133E309A8389837C836B835E834D8338872F8346
S1133E40098789819A8140E150E060E070E00E9436
S1133E505E4A89819A812B813C81FC0135872487C4
S1133E6089819A812D813E81FC0135832483898156
S1133E709A812F813885FC013783268389819A8131
S1133E802985FC012687000029960FB6F894DEBF29
S1133E900FBECDBFDF91CF910F910895AF92BF9226
S1133EA0CF92DF92EF92FF920F93CF93DF93CDB730
S1133EB0DEB760970FB6F894DEBF0FBECDBF9F8309
S1133EC08E83798768875B874A873D872C870E872F
S1133ED0F88AEF868A859B850E947C0C9D838C835F
S1133EE08C819D81892BB9F080E390E00E947C0C49
S1133EF09A83898389819A81892B41F089819A8166
S1133F002C813D81FC01348F238F07C08C819D81DE
S1133F100E947B0D02C01A82198289819A81892BA1
S1133F20C1F0A981BA81EF85F8892C853D854A8540
S1133F305B85688579858E819F81A12CB12C6D016B
S1133F407F010E8519D089819A8103D181E08B8309
S1133F5002C08FEF8B838B8160960FB6F894DEBF1F
S1133F600FBECDBFDF91CF910F91FF90EF90DF9007
S1133F70CF90BF90AF900895AF92BF92CF92DF924F
S1133F80EF92FF920F931F93CF93DF93CDB7DEB7DA
S1133F9062970FB6F894DEBF0FBECDBF9D838C83AE
S1133FA07F836E83598748873B872A870C87FE86E1
S1133FB0ED86D88ACF86BA8AA98A8F859889FC012A
S1133FC0838D948D28853985A90165EA70E00E9466
S1133FD05E4A8F859889FC01238D348D8885998567
S1133FE00197820F931F9B838A838E819F81892BE4
S1133FF069F1198221C08981882F90E02981222FBB
S113400030E04E815F81240F351FF90140812F85F7
S11340103889820F931F4D96FC0140838981882F34
S113402090E02E813F81820F931FFC0180818823C1
S113403039F089818F5F898389818830E0F201C0FA
S113404000008F859889FC0114A204C08F8598898B
S1134050FC01158E8C85843010F083E08C878F856D
S113406098892C85FC01228F8F8598892C85FC01E9
S113407027A38F859889FC0110A68F8598890296BD
S11340800E944F0F8F8598890E960E944F0F8F853F
S113409098892F853889FC01338722878C85882F5E
S11340A090E0A0E0B0E024E030E040E050E07901AE
S11340B08A01E81AF90A0A0B1B0BD801C7012F85DC
S11340C03889F90186879787A08BB18B8F8598896A
S11340D02F853889FC01378B268B8F859889FC01C5
S11340E012A611A68F859889FC0113A614A615A6FD
S11340F016A68F859889FC0117A64A855B852C81B5
S11341003D818A819B81B9010E948E109C018F851B
S11341109889FC01318320838D859E85892B39F014
S11341208D859E852F853889FC013183208300008D
S113413062960FB6F894DEBF0FBECDBFDF91CF916C
S11341401F910F91FF90EF90DF90CF90BF90AF90B1
S11341500895CF93DF931F921F92CDB7DEB79A8352
S113416089830FB6F8940F928091DA178F5F80934A
S1134170DA178091701790917117892B61F48981F6
S11341809A8190937117809370178091DA17813018
S1134190C1F4CBD516C08091E017882391F48091A7
S11341A0701790917117FC01228D89819A81FC010D
S11341B0828D821730F089819A8190937117809350
S11341C070178091E4178F5F8093E4172091E417B0
S11341D089819A81FC0125A389819A81FC01928DB0
S11341E08091DF17891730F489819A81FC01828DCF
S11341F08093DF1789819A81AC014E5F5F4F89817B
S11342009A81FC01828D282F30E06BE0629FC0010F
S1134210639F900D11248E58984EBA010E94620F2C
S11342200F900FBE8091E017882371F08091701772
S113423090917117FC01228D89819A81FC01828DF4
S1134240281710F40E948A1200000F900F90DF913B
S1134250CF910895CF93DF9300D01F921F92CDB7D3
S1134260DEB76A837B838C839D8319828A819B81D9
S1134270AC81BD81892B8A2B8B2B61F065D08A811F
S11342809B81AC81BD8140E0BC01CD010E949B2C8F
S113429068D089838981882311F40E948A120000DE
S11342A00F900F900F900F900F90DF91CF91089582
S11342B0EF92FF920F93CF93DF931F92CDB7DEB7A8
S11342C00F2EF9EEEF2EF7E1FF2EF02D00E020E0A7
S11342D030E040EC50E065ED73E08EE491E0DEDD2B
S11342E089838981813019F40E94422D89838981CF
S11342F0813011F5F8948FEF9FEFDC018093E5177F
S11343009093E617A093E717B093E81781E08093A2
S1134310E0171092DB171092DC171092DD17109241
S1134320DE178091701790917117FC0181A592A5F9
S11343300E9495090E94521200000F90DF91CF91C4
S11343400F91FF90EF900895CF93DF93CDB7DEB731
S11343508091EB178F5F8093EB170000DF91CF9173
S11343600895CF93DF9300D01F92CDB7DEB71A82A2
S113437019821B820FB6F8940F928091EB1781502B
S11343808093EB178091EB17882309F072C080911A
S1134390DA17882309F46DC046C08091BF17909145
S11343A0C017FC01808591859A83898389819A81CC
S11343B00E960E94371089819A8102960E943710C6
S11343C089819A81FC01928D8091DF17891730F4DD
S11343D089819A81FC01828D8093DF1789819A817A
S11343E0AC014E5F5F4F89819A81FC01828D282F39
S11343F030E06BE0629FC001639F900D11248E58E2
S1134400984EBA010E94620F89819A81FC01228D23
S11344108091701790917117FC01828D281718F004
S113442081E08093E2178091B817882309F0B5CF13
S113443089819A81892B09F001D58091E1178C83B8
S11344408C81882371F043D0882319F081E0809314
S1134450E2178C8181508C838C818823A1F7109280
S1134460E1178091E217882321F081E08B830E9479
S11344708A120F900FBE8B810F900F900F900F90A8
S1134480DF91CF910895CF93DF9300D01F92CDB7E2
S1134490DEB70FB6F8940F928091DB179091DC177A
S11344A0A091DD17B091DE1789839A83AB83BC8317
S11344B00F900FBE89819A81AB81BC81BC01CD0173
S11344C00F900F900F900F90DF91CF910895CF939D
S11344D0DF93CDB7DEB72D970FB6F894DEBF0FBECE
S11344E0CDBF19828091EB17882309F0F0C0809129
S11344F0DB179091DC17A091DD17B091DE170196C0
S1134500A11DB11D8A839B83AC83BD838A819B815A
S1134510AC81BD818093DB179093DC17A093DD17EA
S1134520B093DE178A819B81AC81BD81892B8A2B54
S11345308B2BD1F48091B4179091B5179F838E8300
S11345408091B6179091B7179093B5178093B417CD
S11345508E819F819093B7178093B6178091E3174C
S11345608F5F8093E3176AD48091E5179091E617E3
S1134570A091E717B091E8172A813B814C815D81B6
S1134580281739074A075B0708F48AC08091B417D3
S11345909091B517FC018081882361F48FEF9FEF20
S11345A0DC018093E5179093E617A093E717B09387
S11345B0E81776C08091B4179091B517FC018781F4
S11345C09085FC0180859185998788878885998560
S11345D0FC0182819381A481B5818A879B87AC8702
S11345E0BD872A813B814C815D818A859B85AC8511
S11345F0BD85281739074A075B0768F48A859B85B8
S1134600AC85BD858093E5179093E617A093E717D3
S1134610B093E81745C08885998502960E943710A3
S113462088859985FC01808D918D892B29F0888559
S113463099850E960E94371088859985FC01928D84
S11346408091DF17891730F488859985FC01828D64
S11346508093DF1788859985AC014E5F5F4F88850D
S11346609985FC01828D282F30E06BE0629FC001A8
S1134670639F900D11248E58984EBA010E94620FC8
S113468088859985FC01228D80917017909171170E
S1134690FC01828D281708F479CF81E0898376CFD5
S11346A08091701790917117FC01828D282F30E052
S11346B04BE0429FC001439F900D11248E58984EA9
S11346C0FC018081823040F081E0898305C08091C3
S11346D0E1178F5F8093E1178091E217882311F02F
S11346E081E0898389812D960FB6F894DEBF0FBED1
S11346F0CDBFDF91CF910895CF93DF9300D0CDB795
S1134700DEB78091EB17882321F081E08093E217D4
S11347108AC01092E2178091701790917117FC0172
S113472081A592A50E94B509809170179091711787
S1134730FC01208131818091701790917117FC01E7
S1134740838D948D8217930770F0809170179091E8
S113475071179C01235E3F4F8091701790917117E0
S1134760B9010E94C4328091DF17898303C0898113
S1134770815089838981282F30E04BE0429FC0011A
S1134780439F900D11248E58984EFC0180818823FC
S113479071F38981282F30E04BE0429FC001439F91
S11347A0900D11248E58984E9B838A838A819B8115
S11347B0FC0181819281FC01248135818A819B8164
S11347C0FC01328321838A819B81FC012181328116
S11347D08A819B8103962817390769F48A819B8112
S11347E0FC0181819281FC01248135818A819B8134
S11347F0FC01328321838A819B81FC018181928126
S1134800FC0180859185909371178093701789813D
S11348108093DF178091701790917117FC0181A527
S113482092A50E94950900000F900F900F90DF91C0
S1134830CF910895CF93DF9300D000D0CDB7DEB7EA
S11348409A8389834B835C836D837E838091701705
S1134850909171179C01225F3F4F89819A81B90120
S11348600E94B00F8B819C81AD81BE8141E0BC016F
S1134870CD010E949B2C000026960FB6F894DEBF53
S11348800FBECDBFDF91CF9108950F931F93CF93A8
S1134890DF93CDB7DEB72A970FB6F894DEBF0FBE0D
S11348A0CDBF9A8389834B835C836D837E830F831F
S11348B0188729873A8720917017309171178B8157
S11348C09C81AD81BE81B068F90186879787A08BF2
S11348D0B18B80917017909171179C01225F3F4FAB
S11348E089819A81B9010E94620F8F819885A98577
S11348F0BA8541E0BC01CD010E949B2C00002A96A0
S11349000FB6F894DEBF0FBECDBFDF91CF911F91DC
S11349100F910895CF93DF93CDB7DEB727970FB6E6
S1134920F894DEBF0FBECDBF9A8389834B835C832B
S11349306D837E832F8380917017909171179C01F2
S1134940225F3F4F89819A81B9010E94620F8F8152
S1134950882339F08FEF9FEFDC018B839C83AD8339
S1134960BE838B819C81AD81BE814F81BC01CD0111
S1134970E2D7000027960FB6F894DEBF0FBECDBF76
S1134980DF91CF910895CF93DF9300D01F921F92B0
S1134990CDB7DEB79D838C838C819D81FC0187819B
S11349A09085FC01808591859B838A838A819B8184
S11349B00E960E9437108091EB17882351F58A8157
S11349C09B8102960E9437108A819B81FC01928D03
S11349D08091DF17891730F48A819B81FC01828DD5
S11349E08093DF178A819B81AC014E5F5F4F8A8180
S11349F09B81FC01828D282F30E06BE0629FC00117
S1134A00639F900D11248E58984EBA010E94620F34
S1134A1008C08A819B810E96BC0188EB97E10E94B5
S1134A20620F8A819B81FC01228D80917017909185
S1134A307117FC01828D821730F481E0898381E053
S1134A408093E21701C0198289810F900F900F9013
S1134A500F900F90DF91CF910895CF93DF93CDB74F
S1134A60DEB728970FB6F894DEBF0FBECDBF9C8388
S1134A708B834D835E836F8378878D819E81AF8125
S1134A80B885B0682B813C81F90180839183A2832E
S1134A90B3838B819C81FC01808591859A83898372
S1134AA08B819C810E94371089819A8102960E9491
S1134AB0371089819A81FC01928D8091DF178917C3
S1134AC030F489819A81FC01828D8093DF1789817A
S1134AD09A81AC014E5F5F4F89819A81FC01828D7E
S1134AE0282F30E06BE0629FC001639F900D11247A
S1134AF08E58984EBA010E94620F89819A81FC01F6
S1134B00228D8091701790917117FC01828D82170C
S1134B1018F481E08093E217000028960FB6F89409
S1134B20DEBF0FBECDBFDF91CF910895CF93DF934A
S1134B301F921F92CDB7DEB79A8389830FB6F8947C
S1134B400F922091E31789819A81FC01208380913F
S1134B50DB179091DC17A091DD17B091DE17298146
S1134B603A81F90181839283A383B4830F900FBEAA
S1134B7000000F900F90DF91CF910895CF93DF93B2
S1134B801F921F92CDB7DEB79A8389832091E317D2
S1134B9089819A81FC0120838091DB179091DC1735
S1134BA0A091DD17B091DE1729813A81F901818343
S1134BB09283A383B48300000F900F90DF91CF9171
S1134BC00895EF92FF920F931F93CF93DF93CDB786
S1134BD0DEB72D970FB6F894DEBF0FBECDBF9B870F
S1134BE08A877D876C870FB6F8940F928091DB17C4
S1134BF09091DC17A091DD17B091DE178A839B8317
S1134C00AC83BD838A859B85FC0181819281A381CC
S1134C10B4812A813B814C815D8179018A01E81A42
S1134C20F90A0A0B1B0BD801C7018E839F83A8873F
S1134C30B9878C859D85FC0180819181A281B38196
S1134C408F3F9F4FAF4FBF4F11F4198253C08A85D6
S1134C509B85FC0190818091E317981799F08A85D0
S1134C609B85FC0121813281438154818A819B810E
S1134C70AC81BD8182179307A407B50718F081E0C2
S1134C80898338C08C859D85FC01208131814281D6
S1134C9053818E819F81A885B98582179307A407C4
S1134CA0B507F8F48C859D85FC0120813181428112
S1134CB053818E819F81A885B98579018A01E81A7B
S1134CC0F90A0A0B1B0BD801C7012C853D85F90194
S1134CD080839183A283B3838A859B854FDF198266
S1134CE009C08C859D85FC01108211821282138279
S1134CF081E089830F900FBE89812D960FB6F894B9
S1134D00DEBF0FBECDBFDF91CF911F910F91FF90FA
S1134D10EF900895CF93DF93CDB7DEB781E0809312
S1134D20E2170000DF91CF910895CF93DF931F9294
S1134D30CDB7DEB7198210C08981282F30E04BE04F
S1134D40429FC001439F900D11248E58984E0E949B
S1134D50150F89818F5F89838981843068F38EE997
S1134D6097E10E94150F89EA97E10E94150F88EBDD
S1134D7097E10E94150F83EC97E10E94150F8FECC9
S1134D8097E10E94150F8EE997E19093B5178093F0
S1134D90B41789EA97E19093B7178093B617000088
S1134DA00F90DF91CF910895CF93DF931F921F92BD
S1134DB0CDB7DEB720C00FB6F8940F928091CA1712
S1134DC09091CB17FC01808591859A838983898191
S1134DD09A8102960E9437108091DA17815080934D
S1134DE0DA178091CE1781508093CE170F900FBEA3
S1134DF089819A810AD08091CE178823E1F6000038
S1134E000F900F90DF91CF910895CF93DF931F926E
S1134E101F92CDB7DEB79A83898389819A81FC0179
S1134E20838D948D0E947B0D89819A810E947B0DD4
S1134E3000000F900F90DF91CF910895CF93DF93EF
S1134E401F921F92CDB7DEB78091B4179091B5171A
S1134E50FC018081882361F48FEF9FEFDC01809354
S1134E60E5179093E617A093E717B093E8171BC0D4
S1134E708091B4179091B517FC0187819085FC014E
S1134E80808591859A83898389819A81FC018281B5
S1134E909381A481B5818093E5179093E617A0933D
S1134EA0E717B093E81700000F900F90DF91CF91B0
S1134EB00895CF93DF931F921F92CDB7DEB78091F1
S1134EC07017909171179A83898389819A810F90C1
S1134ED00F90DF91CF910895CF93DF931F92CDB7B9
S1134EE0DEB78091E017882319F481E0898308C034
S1134EF08091EB17882319F482E0898301C0198219
S1134F0089810F90DF91CF910895EF92FF920F93D3
S1134F101F93CF93DF9300D01F921F92CDB7DEB7BC
S1134F209D838C838C819D819B838A8319828C8150
S1134F309D81892B09F498C08A819B81FC01228D73
S1134F408091701790917117FC01828D281708F0D9
S1134F507DC08A819B81FC0186859785A089B18962
S1134F60BB23ECF08091701790917117FC01828D36
S1134F70882F90E0A0E0B0E024E030E040E050E092
S1134F8079018A01E81AF90A0A0B1B0BD801C70137
S1134F902A813B81F90186879787A08BB18B8A810F
S1134FA09B81FC01248535858A819B81FC01828D4E
S1134FB0482F50E06BE0649FC001659F900D112461
S1134FC08E58984E28173907A1F58A819B8102963D
S1134FD00E9437108091701790917117FC01228DF7
S1134FE08A819B81FC01228F8A819B81FC01928DA5
S1134FF08091DF17891730F48A819B81FC01828DAF
S11350008093DF178A819B81AC014E5F5F4F8A8159
S11350109B81FC01828D282F30E06BE0629FC001F0
S1135020639F900D11248E58984EBA010E94620F0E
S11350300AC08091701790917117FC01228D8A81AA
S11350409B81FC01228F81E089830EC08A819B8130
S1135050FC0127A18091701790917117FC01828D3A
S1135060281710F481E0898389810F900F900F90A5
S11350700F900F90DF91CF911F910F91FF90EF90C0
S11350800895EF92FF920F931F93CF93DF9300D075
S11350901F921F92CDB7DEB79D838C838C819D8137
S11350A09B838A8319828C819D81892B09F46AC030
S11350B08A819B81FC0180A52FEF280F8A819B8127
S11350C0FC0120A78A819B81FC01228D8A819B811E
S11350D0FC0187A1281709F455C08A819B81FC0132
S11350E080A5882309F04EC08A819B8102960E9484
S11350F037108A819B81FC0127A18A819B81FC0155
S1135100228F8A819B81FC01828D882F90E0A0E010
S1135110B0E024E030E040E050E079018A01E81A90
S1135120F90A0A0B1B0BD801C7012A813B81F9013B
S113513086879787A08BB18B8A819B81FC01928D96
S11351408091DF17891730F48A819B81FC01828D5D
S11351508093DF178A819B81AC014E5F5F4F8A8108
S11351609B81FC01828D282F30E06BE0629FC0019F
S1135170639F900D11248E58984EBA010E94620FBD
S113518081E0898389810F900F900F900F900F9089
S1135190DF91CF911F910F91FF90EF900895EF92BF
S11351A0FF920F931F93CF93DF93CDB7DEB728976A
S11351B00FB6F894DEBF0FBECDBF9F838E83688782
S11351C08E819F819B838A8381E08C838E819F81E2
S11351D0892B09F486C08A819B81FC0197A188856B
S11351E0981718F48885898305C08A819B81FC01FE
S11351F087A189838A819B81FC01928D898198177B
S113520009F46FC08A819B81FC0190A58C81981759
S113521009F067C08A819B81FC01828D8D838A811C
S11352209B812981FC01228F8A819B81FC018685D7
S11352309785A089B189BB23C4F08981882F90E028
S1135240A0E0B0E024E030E040E050E079018A01E1
S1135250E81AF90A0A0B1B0BD801C7012A813B8102
S1135260F90186879787A08BB18B8A819B81FC018A
S1135270248535858D81482F50E06BE0649FC00103
S1135280659F900D11248E58984E2817390749F5BB
S11352908A819B8102960E9437108A819B81FC013E
S11352A0928D8091DF17891730F48A819B81FC01EC
S11352B0828D8093DF178A819B81AC014E5F5F4FA3
S11352C08A819B81FC01828D282F30E06BE0629FF4
S11352D0C001639F900D11248E58984EBA010E940C
S11352E0620F000028960FB6F894DEBF0FBECDBF44
S11352F0DF91CF911F910F91FF90EF900895EF925E
S1135300FF920F931F93CF93DF9300D01F92CDB7DB
S1135310DEB78091701790917117FC01868597858F
S1135320A089B18989839A83AB83BC836091701708
S1135330709171178091701790917117FC01828D93
S1135340882F90E0A0E0B0E024E030E040E050E0BE
S113535079018A01E81AF90A0A0B1B0BD801C70163
S1135360FB0186879787A08BB18B89819A81AB815A
S1135370BC81BC01CD010F900F900F900F90DF9175
S1135380CF911F910F91FF90EF900895CF93DF93EA
S1135390CDB7DEB78091701790917117892B49F0C2
S11353A08091701790917117FC0120A52F5FFC016B
S11353B020A78091701790917117DF91CF91089574
S11353C0CF92DF92EF92FF920F931F93CF93DF93CD
S11353D0CDB7DEB72F970FB6F894DEBF0FBECDBFA3
S11353E06A837B838C839D832E833F83488759877D
S11353F01B870A87CC86DD86EE86FF860FB6F89477
S11354000F928091701790917117FC0187A58230DB
S113541099F16091701770917117FB0123A534A560
S113542045A556A58A819B81AC81BD8180959095C7
S1135430A095B09582239323A423B523FB0183A7CE
S113544094A7A5A7B6A7809170179091711721E032
S1135450FC0127A78C859D85AE85BF85892B8A2B6A
S11354608B2B51F08C859D85AE85BF8541E0BC01B9
S1135470CD0161D20E948A120F900FBE0FB6F8942C
S11354800F928A859B85892B81F08091701790916A
S11354907117FC0183A594A5A5A5B6A52A853B850E
S11354A0F90180839183A283B383809170179091D3
S11354B07117FC0187A5823011F019821CC060911C
S11354C0701770917117FB0123A534A545A556A546
S11354D08E819F81A885B98580959095A095B0957A
S11354E082239323A423B523FB0183A794A7A5A711
S11354F0B6A781E089838091701790917117FC01A0
S113550017A60F900FBE89812F960FB6F894DEBFB1
S11355100FBECDBFDF91CF911F910F91FF90EF9000
S1135520DF90CF9008950F931F93CF93DF93CDB760
S1135530DEB72D970FB6F894DEBF0FBECDBF9E83A6
S11355408D834F83588769877A872B871D870C87BC
S113555081E089838D819E819B838A830FB6F89431
S11355600F928C859D85892B71F08A819B81FC012A
S113557083A594A5A5A5B6A52C853D85F9018083B1
S11355809183A283B3838A819B81FC0187A58C8349
S11355908A819B8122E0FC0127A78B85882F90E0DC
S11355A08230910531F18330910534F4009709F488
S11355B04FC0019739F04DC08330910561F10497D4
S11355C0B1F147C08A819B81FC0123A534A545A57F
S11355D056A58F819885A985BA85822B932BA42BF8
S11355E0B52B2A813B81F90183A794A7A5A7B6A768
S11355F030C08A819B81FC0183A594A5A5A5B6A58D
S11356000196A11DB11D2A813B81F90183A794A7AD
S1135610A5A7B6A71EC02A813B818F819885A9853D
S1135620BA85F90183A794A7A5A7B6A712C08C8150
S1135630823061F02A813B818F819885A985BA8562
S1135640F90183A794A7A5A7B6A703C0198201C02F
S113565000008C818130B9F58A819B8102960E9479
S113566037108A819B81FC01928D8091DF17891705
S113567030F48A819B81FC01828D8093DF178A81BB
S11356809B81AC014E5F5F4F8A819B81FC01828DBF
S1135690282F30E06BE0629FC001639F900D1124BE
S11356A08E58984EBA010E94620F8A819B81FC0138
S11356B0228D8091701790917117FC01828D821751
S11356C010F40E948A120F900FBE89812D960FB696
S11356D0F894DEBF0FBECDBFDF91CF911F910F9124
S11356E00895EF92FF920F931F93CF93DF93CDB75B
S11356F0DEB760970FB6F894DEBF0FBECDBF9F83B1
S11357008E83488759876A877B872C871E870D87F6
S1135710F88AEF8681E089838E819F819B838A83C7
S11357201C828D859E85892B71F08A819B81FC0169
S113573083A594A5A5A5B6A52D853E85F9018083ED
S11357409183A283B3838A819B81FC0187A58D8386
S11357508A819B8122E0FC0127A78C85882F90E019
S11357608230910531F18330910534F4009709F4C6
S11357704FC0019739F04DC08330910561F1049712
S1135780B1F147C08A819B81FC0123A534A545A5BD
S113579056A588859985AA85BB85822B932BA42B36
S11357A0B52B2A813B81F90183A794A7A5A7B6A7A6
S11357B030C08A819B81FC0183A594A5A5A5B6A5CB
S11357C00196A11DB11D2A813B81F90183A794A7EC
S11357D0A5A7B6A71EC02A813B8188859985AA857D
S11357E0BB85F90183A794A7A5A7B6A712C08D818D
S11357F0823061F02A813B8188859985AA85BB85A1
S1135800F90183A794A7A5A7B6A703C0198201C06D
S113581000008D81813009F04EC08091EB17882300
S113582051F58A819B8102960E9437108A819B815F
S1135830FC01928D8091DF17891730F48A819B8156
S1135840FC01828D8093DF178A819B81AC014E5FBE
S11358505F4F8A819B81FC01828D282F30E06BE0B1
S1135860629FC001639F900D11248E58984EBA0117
S11358700E94620F08C08A819B810E96BC0188EB4E
S113588097E10E94620F8A819B81FC01228D8091A5
S1135890701790917117FC01828D821760F48F85C7
S11358A09889892B29F08F85988921E0FC01208330
S11358B081E08093E217898160960FB6F894DEBF89
S11358C00FBECDBFDF91CF911F910F91FF90EF904D
S11358D00895CF93DF9300D01F921F92CDB7DEB708
S11358E09D838C838C819D81892B29F480917017F1
S11358F09091711702C08C819D819B838A830FB61E
S1135900F8940F928A819B81FC0187A5823039F437
S11359108A819B81FC0117A681E0898301C01982D9
S11359200F900FBE89810F900F900F900F900F90E2
S1135930DF91CF910895CF93DF93CDB7DEB72D9745
S11359400FB6F894DEBF0FBECDBF69877A878B8709
S11359509C874D878091DB179091DC17A091DD1710
S1135960B091DE1789839A83AB83BC8380917017CF
S11359709091711702960E94371089859A85AB859C
S1135980BC858F3F9F4FAF4FBF4F71F48D858823E8
S113599059F080917017909171170296BC018FECA9
S11359A097E10E94620F64C029813A814B815C8136
S11359B089859A85AB85BC85820F931FA41FB51F6B
S11359C08D839E83AF83B8872091701730917117B0
S11359D08D819E81AF81B885F90182839383A483ED
S11359E0B5832D813E814F81588589819A81AB8110
S11359F0BC81281739074A075B0778F48091701730
S1135A00909171179C012E5F3F4F8091B617909132
S1135A10B717B9010E94B00F2BC0809170179091F5
S1135A2071179C012E5F3F4F8091B4179091B51769
S1135A30B9010E94B00F8091E5179091E617A091EB
S1135A40E717B091E8172D813E814F8158852817BB
S1135A5039074A075B0760F48D819E81AF81B88561
S1135A608093E5179093E617A093E717B093E81790
S1135A7000002D960FB6F894DEBF0FBECDBFDF91A8
S1135A80CF910895EF92FF920F93CF93DF931F92DC
S1135A90CDB7DEB71982AED480910618909107185D
S1135AA0892B91F00F2EF8E0EF2EF8E1FF2EF02D68
S1135AB003E020E030E045E550E06AED73E081E684
S1135AC091E00E944E1F898389810F90DF91CF91CD
S1135AD00F91FF90EF900895CF92DF92EF92FF9293
S1135AE00F931F93CF93DF93CDB7DEB765970FB6B0
S1135AF0F894DEBF0FBECDBF9A8789876B872C874A
S1135B003D874E875F87198B088BCA8ADB8AEC8AAC
S1135B10FD8A19828091061890910718892B09F43F
S1135B2043C08B858A838C859D85AE85BF858B8399
S1135B309C83AD83BE8389859A8598878F838B8563
S1135B4086302CF5C9D9823099F4E0910618F09189
S1135B5007188A899B89AC89BD89BE016E5F7F4F16
S1135B6000E09C01AD01CF010E94E31489831CC0B5
S1135B708091061890910718BE016E5F7F4F00E078
S1135B8020E030E0A9010E94E31489830DC08091D4
S1135B9006189091071848895989BE016E5F7F4F96
S1135BA020E00E9499158983898165960FB6F8943F
S1135BB0DEBF0FBECDBFDF91CF911F910F91FF903C
S1135BC0EF90DF90CF900895CF92DF92EF92FF9203
S1135BD00F931F93CF93DF93CDB7DEB72B970FB6F9
S1135BE0F894DEBF0FBECDBF6C837D838E839F830D
S1135BF0288739874A875B87809102189091031818
S1135C00FC0187819085FC01808591859A83898335
S1135C1089819A8102960E94371089819A81FC01B8
S1135C208789882F90E084709927892BA9F189812D
S1135C309A81FC0126853785408951898C819D8113
S1135C40AE81BF81820F931FA41FB51FEC80FD801E
S1135C500E811F81288539854A855B85E981FA8112
S1135C606701780189019A01AC01BD01CF013ED1E0
S1135C708823E1F08C819D81AE81BF81E981FA8125
S1135C80C12CD12C760100E010E09C01AD0160E054
S1135C90CF0122DF8B830AC089819A81FC01878925
S1135CA0282F2E7F89819A81FC01278B89819A81F3
S1135CB0FC012489358989819A81F90119950000AB
S1135CC02B960FB6F894DEBF0FBECDBFDF91CF91F8
S1135CD01F910F91FF90EF90DF90CF900895EF9276
S1135CE0FF920F931F93CF93DF93CDB7DEB72A971D
